{
  "contractName": "Companies",
  "abi": [
    {
      "constant": true,
      "inputs": [],
      "name": "companyCount",
      "outputs": [
        {
          "name": "",
          "type": "uint256"
        }
      ],
      "payable": false,
      "stateMutability": "view",
      "type": "function"
    },
    {
      "inputs": [],
      "payable": false,
      "stateMutability": "nonpayable",
      "type": "constructor"
    },
    {
      "constant": false,
      "inputs": [
        {
          "name": "name",
          "type": "string"
        },
        {
          "name": "_wallet",
          "type": "address"
        }
      ],
      "name": "addCompany",
      "outputs": [],
      "payable": false,
      "stateMutability": "nonpayable",
      "type": "function"
    }
  ],
  "bytecode": "0x608060405234801561001057600080fd5b5060006001819055506103d1806100286000396000f3fe608060405234801561001057600080fd5b50600436106100365760003560e01c806338f032691461003b5780638e75dd4714610057575b600080fd5b6100556004803603610050919081019061025e565b610075565b005b61005f61014a565b60405161006c91906102c1565b60405180910390f35b600060405180604001604052808481526020018373ffffffffffffffffffffffffffffffffffffffff168152509080600181540180825580915050906001820390600052602060002090600202016000909192909190915060008201518160000190805190602001906100e9929190610150565b5060208201518160010160006101000a81548173ffffffffffffffffffffffffffffffffffffffff021916908373ffffffffffffffffffffffffffffffffffffffff1602179055505050506001600081548092919060010191905055505050565b60015481565b828054600181600116156101000203166002900490600052602060002090601f016020900481019282601f1061019157805160ff19168380011785556101bf565b828001600101855582156101bf579182015b828111156101be5782518255916020019190600101906101a3565b5b5090506101cc91906101d0565b5090565b6101f291905b808211156101ee5760008160009055506001016101d6565b5090565b90565b60008135905061020481610380565b92915050565b600082601f83011261021b57600080fd5b813561022e61022982610309565b6102dc565b9150808252602083016020830185838301111561024a57600080fd5b610255838284610371565b50505092915050565b6000806040838503121561027157600080fd5b600083013567ffffffffffffffff81111561028b57600080fd5b6102978582860161020a565b92505060206102a8858286016101f5565b9150509250929050565b6102bb81610367565b82525050565b60006020820190506102d660008301846102b2565b92915050565b6000604051905081810181811067ffffffffffffffff821117156102ff57600080fd5b8060405250919050565b600067ffffffffffffffff82111561032057600080fd5b601f19601f8301169050602081019050919050565b600061034082610347565b9050919050565b600073ffffffffffffffffffffffffffffffffffffffff82169050919050565b6000819050919050565b82818337600083830152505050565b61038981610335565b811461039457600080fd5b5056fea265627a7a723058200f57abe71a006ad7a9380fe3a490ed736d87c0cca7d30e7d806bcfbd8ac31b2f6c6578706572696d656e74616cf50037",
  "source": "pragma solidity ^0.5.0;\r\npragma experimental ABIEncoderV2;\r\nimport \"./Degree.sol\";\r\n\r\n\r\n// contract Universities {\r\n//     mapping(address => University) public universities;\r\n//     uint public universityCount;\r\n//     Degree public degreeGenerator;\r\n//     Companies public companies;\r\n\r\n//     constructor(Degree _degree, Companies _companies) public\r\n//     {\r\n//         degreeGenerator = _degree;\r\n//         companies = _companies;\r\n//         universityCount = 0;\r\n//         addUniversity(\"Stellenbosch University\", \"randomnum\", 0xB71075dd72b94C65a69235A511B69Af30161272C);\r\n//     }\r\n\r\n//     function addUniversity(string memory _name, string memory _identifier, address _wallet) public\r\n//     {\r\n//         University university = new University (_name, _identifier, _wallet, degreeGenerator, companies);\r\n//         universities[_wallet] = university;\r\n//         universityCount++;\r\n//     }\r\n\r\n//     function getUniversityInstance(address _wallet) public view returns (University) {\r\n//         return universities[_wallet];\r\n//     }\r\n\r\n//     function getUniversityCount() public view returns (uint){\r\n//         return universityCount;\r\n//     }\r\n// }\r\n\r\ncontract Companies {\r\n    Company[] companies;\r\n    uint public companyCount;\r\n\r\n    struct Company{\r\n        string name;\r\n        address wallet;\r\n    }\r\n\r\n     constructor() public{\r\n        companyCount = 0;\r\n     }\r\n\r\n    function addCompany(string memory name, address _wallet) public {\r\n        companies.push(Company(name, _wallet));\r\n        companyCount ++;\r\n    }\r\n}\r\n\r\ncontract UniversityDegreeAuthenticator{\r\n\r\n    Degree public degreeGenerator;\r\n    mapping(uint => address) public degreeTokenIds;\r\n    Companies public companies;\r\n    University currentUniversity;\r\n\r\n    struct University {\r\n        string universityName;\r\n        string identifier;\r\n        address wallet;\r\n    }\r\n\r\n    mapping(address => Student) students;\r\n    uint studentCount;\r\n    mapping(uint => Request) requests;\r\n    uint requestCount;\r\n\r\n    struct Student {\r\n        string studentid;\r\n        string name;\r\n        string surname;\r\n        address walletaddress;\r\n        uint degreeTokenCount;\r\n        bool exists;\r\n    }\r\n\r\n    struct Request {\r\n        string studentid;\r\n        string degreename;\r\n        string degreetype;\r\n        string degreemajor;\r\n        address walletaddress;\r\n    }\r\n\r\n    constructor(Degree _degree, Companies _companies) public\r\n    {\r\n        addUniversity(\"Stellenbosch University\", \"randomnum\", 0xB71075dd72b94C65a69235A511B69Af30161272C);\r\n        degreeGenerator = _degree;\r\n        companies = _companies;\r\n        addStudent(\"19026672\", \"Amanda\", \"Pierce\", 0x7A6aE73a9A9a84fb315ffdC46f28f48446833658);\r\n    }\r\n\r\n    function addUniversity(string memory _name, string memory _identifier, address _wallet) public\r\n    {\r\n        University memory university = University(_name, _identifier, _wallet);\r\n        currentUniversity = university;\r\n    }\r\n\r\n    function isRegisteredUser() public view returns (string memory)\r\n    {\r\n        if(!students[msg.sender].exists)\r\n        {\r\n            require((currentUniversity.wallet == msg.sender), \"University does not exist\");\r\n            return \"university\";\r\n        }\r\n        else\r\n        {\r\n            return \"student\";\r\n        }\r\n    }\r\n\r\n    function getName() public view returns (string memory)\r\n    {\r\n        string memory currentType = isRegisteredUser();\r\n\r\n        if(keccak256(abi.encodePacked(currentType)) == keccak256(abi.encodePacked(\"university\")))\r\n        {\r\n            return currentUniversity.universityName;\r\n        }\r\n        else\r\n        {\r\n            return string(abi.encodePacked(students[msg.sender].studentid, \": \", students[msg.sender].name, \" \", students[msg.sender].surname));\r\n        }\r\n    }\r\n\r\n    function getTotalRequests() public view returns (uint)\r\n    {\r\n        return requestCount;\r\n    }\r\n\r\n    function addStudent(string memory _studentid, string memory _studentname, string memory _surname, address _wallet) public {\r\n        //bytes32 _id = keccak256(abi.encodePacked(_studentid));\r\n        students[_wallet] = Student(_studentid, _studentname, _surname, _wallet, 0, true);\r\n        studentCount++;\r\n    }\r\n\r\n    function getStudentInformation() public view returns (Student memory) {\r\n        require((students[msg.sender].exists), \"Student does not exist\");\r\n        Student memory student = students[msg.sender];\r\n        //bytes32 _id = keccak256(abi.encodePacked(_studentid));\r\n        return student;\r\n    }\r\n\r\n    function requestDocument(string memory studentid, string memory degreename, string memory degreetype, string memory degreemajor) public {\r\n        requestCount++;\r\n        requests[requestCount] = Request(studentid, degreename, degreetype, degreemajor, msg.sender);\r\n    }\r\n\r\n    function handleRequest(string memory studentid, string memory ipfshash, string memory uniqueKey) public {\r\n        Request memory request;\r\n        uint idx;\r\n        for(uint i = 1; i <= requestCount; i++)\r\n        {\r\n            if (keccak256(abi.encodePacked((requests[i].studentid))) == keccak256(abi.encodePacked((studentid))))\r\n            {\r\n                request = requests[i];\r\n                idx = i;\r\n                break;\r\n            }\r\n        }\r\n        addDegree(request.walletaddress, request.studentid, request.degreename, request.degreetype, request.degreemajor, ipfshash, uniqueKey);\r\n        delete requests[idx];\r\n        requestCount--;\r\n    }\r\n\r\n    function addDegree\r\n    (\r\n        address studentaddress,\r\n        string memory studentid,\r\n        string memory degreename,\r\n        string memory degreetype,\r\n        string memory degreemajor,\r\n        string memory ipfshash,\r\n        string memory uniqueKey\r\n    ) public\r\n    {\r\n        Student storage student = students[studentaddress];\r\n        uint _id = degreeGenerator.mint(studentaddress, studentid, degreename, degreetype, degreemajor, ipfshash, uniqueKey);\r\n        student.degreeTokenCount ++;\r\n        degreeTokenIds[_id] = studentaddress;\r\n    }\r\n\r\n    function getTotalDegrees() public view returns(uint) {\r\n        return degreeGenerator.totalSupply();\r\n    }\r\n \r\n    function getDegreeHash\r\n    (\r\n        string memory degreename,\r\n        string memory degreetype,\r\n        string memory degreemajor\r\n    ) public view returns (string memory) {\r\n        return degreeGenerator.getIpfsHash(degreename, degreetype, degreemajor);\r\n    }\r\n}\r\n",
  "sourcePath": "C:/Users/Amanda/Desktop/BlockchainAssignment3/contracts/Universities.sol",
  "compiler": {
    "name": "solc",
    "version": "0.5.8+commit.23d335f2.Emscripten.clang"
  },
  "schemaVersion": "3.0.16",
  "updatedAt": "2019-10-26T17:29:01.144Z",
  "devdoc": {
    "methods": {}
  },
  "userdoc": {
    "methods": {}
  }
}