{
  "contractName": "UniversityDegreeAuthenticator",
  "abi": [
    {
      "constant": true,
      "inputs": [],
      "name": "companies",
      "outputs": [
        {
          "name": "",
          "type": "address"
        }
      ],
      "payable": false,
      "stateMutability": "view",
      "type": "function"
    },
    {
      "constant": true,
      "inputs": [
        {
          "name": "",
          "type": "uint256"
        }
      ],
      "name": "degreeTokenIds",
      "outputs": [
        {
          "name": "",
          "type": "address"
        }
      ],
      "payable": false,
      "stateMutability": "view",
      "type": "function"
    },
    {
      "constant": true,
      "inputs": [],
      "name": "degreeGenerator",
      "outputs": [
        {
          "name": "",
          "type": "address"
        }
      ],
      "payable": false,
      "stateMutability": "view",
      "type": "function"
    },
    {
      "inputs": [
        {
          "name": "_degree",
          "type": "address"
        },
        {
          "name": "_companies",
          "type": "address"
        }
      ],
      "payable": false,
      "stateMutability": "nonpayable",
      "type": "constructor"
    },
    {
      "constant": false,
      "inputs": [
        {
          "name": "_name",
          "type": "string"
        },
        {
          "name": "_identifier",
          "type": "string"
        },
        {
          "name": "_wallet",
          "type": "address"
        }
      ],
      "name": "addUniversity",
      "outputs": [],
      "payable": false,
      "stateMutability": "nonpayable",
      "type": "function"
    },
    {
      "constant": true,
      "inputs": [],
      "name": "isRegisteredUser",
      "outputs": [
        {
          "name": "",
          "type": "string"
        }
      ],
      "payable": false,
      "stateMutability": "view",
      "type": "function"
    },
    {
      "constant": true,
      "inputs": [],
      "name": "getName",
      "outputs": [
        {
          "name": "",
          "type": "string"
        }
      ],
      "payable": false,
      "stateMutability": "view",
      "type": "function"
    },
    {
      "constant": true,
      "inputs": [],
      "name": "getTotalRequests",
      "outputs": [
        {
          "name": "",
          "type": "uint256"
        }
      ],
      "payable": false,
      "stateMutability": "view",
      "type": "function"
    },
    {
      "constant": false,
      "inputs": [
        {
          "name": "_studentid",
          "type": "string"
        },
        {
          "name": "_studentname",
          "type": "string"
        },
        {
          "name": "_surname",
          "type": "string"
        },
        {
          "name": "_wallet",
          "type": "address"
        }
      ],
      "name": "addStudent",
      "outputs": [],
      "payable": false,
      "stateMutability": "nonpayable",
      "type": "function"
    },
    {
      "constant": true,
      "inputs": [],
      "name": "getStudentInformation",
      "outputs": [
        {
          "components": [
            {
              "name": "studentid",
              "type": "string"
            },
            {
              "name": "name",
              "type": "string"
            },
            {
              "name": "surname",
              "type": "string"
            },
            {
              "name": "walletaddress",
              "type": "address"
            },
            {
              "name": "degreeTokenCount",
              "type": "uint256"
            },
            {
              "name": "exists",
              "type": "bool"
            }
          ],
          "name": "",
          "type": "tuple"
        }
      ],
      "payable": false,
      "stateMutability": "view",
      "type": "function"
    },
    {
      "constant": false,
      "inputs": [
        {
          "name": "studentid",
          "type": "string"
        },
        {
          "name": "degreename",
          "type": "string"
        },
        {
          "name": "degreetype",
          "type": "string"
        },
        {
          "name": "degreemajor",
          "type": "string"
        }
      ],
      "name": "requestDocument",
      "outputs": [],
      "payable": false,
      "stateMutability": "nonpayable",
      "type": "function"
    },
    {
      "constant": false,
      "inputs": [
        {
          "name": "studentid",
          "type": "string"
        },
        {
          "name": "ipfshash",
          "type": "string"
        },
        {
          "name": "uniqueKey",
          "type": "string"
        }
      ],
      "name": "handleRequest",
      "outputs": [],
      "payable": false,
      "stateMutability": "nonpayable",
      "type": "function"
    },
    {
      "constant": false,
      "inputs": [
        {
          "name": "studentaddress",
          "type": "address"
        },
        {
          "name": "studentid",
          "type": "string"
        },
        {
          "name": "degreename",
          "type": "string"
        },
        {
          "name": "degreetype",
          "type": "string"
        },
        {
          "name": "degreemajor",
          "type": "string"
        },
        {
          "name": "ipfshash",
          "type": "string"
        },
        {
          "name": "uniqueKey",
          "type": "string"
        }
      ],
      "name": "addDegree",
      "outputs": [],
      "payable": false,
      "stateMutability": "nonpayable",
      "type": "function"
    },
    {
      "constant": true,
      "inputs": [],
      "name": "getTotalDegrees",
      "outputs": [
        {
          "name": "",
          "type": "uint256"
        }
      ],
      "payable": false,
      "stateMutability": "view",
      "type": "function"
    },
    {
      "constant": true,
      "inputs": [
        {
          "name": "degreename",
          "type": "string"
        },
        {
          "name": "degreetype",
          "type": "string"
        },
        {
          "name": "degreemajor",
          "type": "string"
        }
      ],
      "name": "getDegreeHash",
      "outputs": [
        {
          "name": "",
          "type": "string"
        }
      ],
      "payable": false,
      "stateMutability": "view",
      "type": "function"
    }
  ],
  "bytecode": "0x60806040523480156200001157600080fd5b506040516040806200294c833981018060405262000033919081019062000565565b620000c46040518060400160405280601781526020017f5374656c6c656e626f73636820556e69766572736974790000000000000000008152506040518060400160405280600981526020017f72616e646f6d6e756d000000000000000000000000000000000000000000000081525073b71075dd72b94c65a69235a511b69af30161272c6200021460201b60201c565b816000806101000a81548173ffffffffffffffffffffffffffffffffffffffff021916908373ffffffffffffffffffffffffffffffffffffffff16021790555080600260006101000a81548173ffffffffffffffffffffffffffffffffffffffff021916908373ffffffffffffffffffffffffffffffffffffffff1602179055506200020c6040518060400160405280600881526020017f31393032363637320000000000000000000000000000000000000000000000008152506040518060400160405280600681526020017f416d616e646100000000000000000000000000000000000000000000000000008152506040518060400160405280600681526020017f5069657263650000000000000000000000000000000000000000000000000000815250737a6ae73a9a9a84fb315ffdc46f28f48446833658620002e260201b60201c565b505062000636565b6200021e62000451565b60405180606001604052808581526020018481526020018373ffffffffffffffffffffffffffffffffffffffff16815250905080600360008201518160000190805190602001906200027292919062000488565b5060208201518160010190805190602001906200029192919062000488565b5060408201518160020160006101000a81548173ffffffffffffffffffffffffffffffffffffffff021916908373ffffffffffffffffffffffffffffffffffffffff16021790555090505050505050565b6040518060c001604052808581526020018481526020018381526020018273ffffffffffffffffffffffffffffffffffffffff1681526020016000815260200160011515815250600660008373ffffffffffffffffffffffffffffffffffffffff1673ffffffffffffffffffffffffffffffffffffffff16815260200190815260200160002060008201518160000190805190602001906200038692919062000488565b506020820151816001019080519060200190620003a592919062000488565b506040820151816002019080519060200190620003c492919062000488565b5060608201518160030160006101000a81548173ffffffffffffffffffffffffffffffffffffffff021916908373ffffffffffffffffffffffffffffffffffffffff1602179055506080820151816004015560a08201518160050160006101000a81548160ff02191690831515021790555090505060076000815480929190600101919050555050505050565b60405180606001604052806060815260200160608152602001600073ffffffffffffffffffffffffffffffffffffffff1681525090565b828054600181600116156101000203166002900490600052602060002090601f016020900481019282601f10620004cb57805160ff1916838001178555620004fc565b82800160010185558215620004fc579182015b82811115620004fb578251825591602001919060010190620004de565b5b5090506200050b91906200050f565b5090565b6200053491905b808211156200053057600081600090555060010162000516565b5090565b90565b600081519050620005488162000602565b92915050565b6000815190506200055f816200061c565b92915050565b600080604083850312156200057957600080fd5b600062000589858286016200054e565b92505060206200059c8582860162000537565b9150509250929050565b6000620005b382620005e2565b9050919050565b6000620005c782620005a6565b9050919050565b6000620005db82620005a6565b9050919050565b600073ffffffffffffffffffffffffffffffffffffffff82169050919050565b6200060d81620005ba565b81146200061957600080fd5b50565b6200062781620005ce565b81146200063357600080fd5b50565b61230680620006466000396000f3fe608060405234801561001057600080fd5b50600436106100ea5760003560e01c80638c2fd0481161008c5780639df310e1116100665780639df310e114610239578063e351016214610255578063e5b5259b14610271578063f0e22d521461028f576100ea565b80638c2fd048146101e35780638c7e63241461020157806396e3f8091461021d576100ea565b80632a454686116100c85780632a4546861461015b578063366b19ae146101795780636af6a0391461019757806384003142146101b3576100ea565b80630194ff8c146100ef578063058c86dc1461010d57806317d7de7c1461013d575b600080fd5b6100f76102ad565b6040516101049190611fec565b60405180910390f35b61012760048036036101229190810190611aeb565b6102d3565b6040516101349190611f38565b60405180910390f35b610145610306565b6040516101529190612022565b60405180910390f35b6101636104f9565b60405161017091906120d0565b60405180910390f35b61018161084c565b60405161018e9190612022565b60405180910390f35b6101b160048036036101ac919081019061197d565b6109ae565b005b6101cd60048036036101c891908101906118e6565b610b17565b6040516101da9190612022565b60405180910390f35b6101eb610bd5565b6040516101f89190612007565b60405180910390f35b61021b600480360361021691908101906116f8565b610bfa565b005b61023760048036036102329190810190611a28565b610d6a565b005b610253600480360361024e91908101906118e6565b610e92565b005b61026f600480360361026a9190810190611867565b6112e2565b005b6102796113aa565b60405161028691906120f2565b60405180910390f35b610297611450565b6040516102a491906120f2565b60405180910390f35b600260009054906101000a900473ffffffffffffffffffffffffffffffffffffffff1681565b60016020528060005260406000206000915054906101000a900473ffffffffffffffffffffffffffffffffffffffff1681565b60608061031161084c565b905060405160200161032290611f23565b60405160208183030381529060405280519060200120816040516020016103499190611eae565b60405160208183030381529060405280519060200120141561040b5760036000018054600181600116156101000203166002900480601f0160208091040260200160405190810160405280929190818152602001828054600181600116156101000203166002900480156103fe5780601f106103d3576101008083540402835291602001916103fe565b820191906000526020600020905b8154815290600101906020018083116103e157829003601f168201915b50505050509150506104f6565b600660003373ffffffffffffffffffffffffffffffffffffffff1673ffffffffffffffffffffffffffffffffffffffff168152602001908152602001600020600001600660003373ffffffffffffffffffffffffffffffffffffffff1673ffffffffffffffffffffffffffffffffffffffff168152602001908152602001600020600101600660003373ffffffffffffffffffffffffffffffffffffffff1673ffffffffffffffffffffffffffffffffffffffff1681526020019081526020016000206002016040516020016104e393929190611edc565b6040516020818303038152906040529150505b90565b61050161145a565b600660003373ffffffffffffffffffffffffffffffffffffffff1673ffffffffffffffffffffffffffffffffffffffff16815260200190815260200160002060050160009054906101000a900460ff16610590576040517f08c379a0000000000000000000000000000000000000000000000000000000008152600401610587906120b0565b60405180910390fd5b61059861145a565b600660003373ffffffffffffffffffffffffffffffffffffffff1673ffffffffffffffffffffffffffffffffffffffff1681526020019081526020016000206040518060c0016040529081600082018054600181600116156101000203166002900480601f01602080910402602001604051908101604052809291908181526020018280546001816001161561010002031660029004801561067b5780601f106106505761010080835404028352916020019161067b565b820191906000526020600020905b81548152906001019060200180831161065e57829003601f168201915b50505050508152602001600182018054600181600116156101000203166002900480601f01602080910402602001604051908101604052809291908181526020018280546001816001161561010002031660029004801561071d5780601f106106f25761010080835404028352916020019161071d565b820191906000526020600020905b81548152906001019060200180831161070057829003601f168201915b50505050508152602001600282018054600181600116156101000203166002900480601f0160208091040260200160405190810160405280929190818152602001828054600181600116156101000203166002900480156107bf5780601f10610794576101008083540402835291602001916107bf565b820191906000526020600020905b8154815290600101906020018083116107a257829003601f168201915b505050505081526020016003820160009054906101000a900473ffffffffffffffffffffffffffffffffffffffff1673ffffffffffffffffffffffffffffffffffffffff1673ffffffffffffffffffffffffffffffffffffffff168152602001600482015481526020016005820160009054906101000a900460ff16151515158152505090508091505090565b6060600660003373ffffffffffffffffffffffffffffffffffffffff1673ffffffffffffffffffffffffffffffffffffffff16815260200190815260200160002060050160009054906101000a900460ff16610972573373ffffffffffffffffffffffffffffffffffffffff16600360020160009054906101000a900473ffffffffffffffffffffffffffffffffffffffff1673ffffffffffffffffffffffffffffffffffffffff1614610935576040517f08c379a000000000000000000000000000000000000000000000000000000000815260040161092c90612090565b60405180910390fd5b6040518060400160405280600a81526020017f756e69766572736974790000000000000000000000000000000000000000000081525090506109ab565b6040518060400160405280600781526020017f73747564656e740000000000000000000000000000000000000000000000000081525090505b90565b6040518060c001604052808581526020018481526020018381526020018273ffffffffffffffffffffffffffffffffffffffff1681526020016000815260200160011515815250600660008373ffffffffffffffffffffffffffffffffffffffff1673ffffffffffffffffffffffffffffffffffffffff1681526020019081526020016000206000820151816000019080519060200190610a509291906114a8565b506020820151816001019080519060200190610a6d9291906114a8565b506040820151816002019080519060200190610a8a9291906114a8565b5060608201518160030160006101000a81548173ffffffffffffffffffffffffffffffffffffffff021916908373ffffffffffffffffffffffffffffffffffffffff1602179055506080820151816004015560a08201518160050160006101000a81548160ff02191690831515021790555090505060076000815480929190600101919050555050505050565b60606000809054906101000a900473ffffffffffffffffffffffffffffffffffffffff1673ffffffffffffffffffffffffffffffffffffffff166341191c0a8585856040518463ffffffff1660e01b8152600401610b7793929190612044565b60006040518083038186803b158015610b8f57600080fd5b505afa158015610ba3573d6000803e3d6000fd5b505050506040513d6000823e3d601f19601f82011682018060405250610bcc9190810190611826565b90509392505050565b6000809054906101000a900473ffffffffffffffffffffffffffffffffffffffff1681565b6000600660008973ffffffffffffffffffffffffffffffffffffffff1673ffffffffffffffffffffffffffffffffffffffff168152602001908152602001600020905060008060009054906101000a900473ffffffffffffffffffffffffffffffffffffffff1673ffffffffffffffffffffffffffffffffffffffff1663aba811258a8a8a8a8a8a8a6040518863ffffffff1660e01b8152600401610ca59796959493929190611f53565b602060405180830381600087803b158015610cbf57600080fd5b505af1158015610cd3573d6000803e3d6000fd5b505050506040513d601f19601f82011682018060405250610cf79190810190611b14565b90508160040160008154809291906001019190505550886001600083815260200190815260200160002060006101000a81548173ffffffffffffffffffffffffffffffffffffffff021916908373ffffffffffffffffffffffffffffffffffffffff160217905550505050505050505050565b6009600081548092919060010191905055506040518060a001604052808581526020018481526020018381526020018281526020013373ffffffffffffffffffffffffffffffffffffffff168152506008600060095481526020019081526020016000206000820151816000019080519060200190610dea9291906114a8565b506020820151816001019080519060200190610e079291906114a8565b506040820151816002019080519060200190610e249291906114a8565b506060820151816003019080519060200190610e419291906114a8565b5060808201518160040160006101000a81548173ffffffffffffffffffffffffffffffffffffffff021916908373ffffffffffffffffffffffffffffffffffffffff16021790555090505050505050565b610e9a611528565b600080600190505b60095481116112275785604051602001610ebc9190611eae565b6040516020818303038152906040528051906020012060086000838152602001908152602001600020600001604051602001610ef89190611ec5565b60405160208183030381529060405280519060200120141561121a57600860008281526020019081526020016000206040518060a0016040529081600082018054600181600116156101000203166002900480601f016020809104026020016040519081016040528092919081815260200182805460018160011615610100020316600290048015610fcb5780601f10610fa057610100808354040283529160200191610fcb565b820191906000526020600020905b815481529060010190602001808311610fae57829003601f168201915b50505050508152602001600182018054600181600116156101000203166002900480601f01602080910402602001604051908101604052809291908181526020018280546001816001161561010002031660029004801561106d5780601f106110425761010080835404028352916020019161106d565b820191906000526020600020905b81548152906001019060200180831161105057829003601f168201915b50505050508152602001600282018054600181600116156101000203166002900480601f01602080910402602001604051908101604052809291908181526020018280546001816001161561010002031660029004801561110f5780601f106110e45761010080835404028352916020019161110f565b820191906000526020600020905b8154815290600101906020018083116110f257829003601f168201915b50505050508152602001600382018054600181600116156101000203166002900480601f0160208091040260200160405190810160405280929190818152602001828054600181600116156101000203166002900480156111b15780601f10611186576101008083540402835291602001916111b1565b820191906000526020600020905b81548152906001019060200180831161119457829003601f168201915b505050505081526020016004820160009054906101000a900473ffffffffffffffffffffffffffffffffffffffff1673ffffffffffffffffffffffffffffffffffffffff1673ffffffffffffffffffffffffffffffffffffffff16815250509250809150611227565b8080600101915050610ea2565b5061124b826080015183600001518460200151856040015186606001518989610bfa565b600860008281526020019081526020016000206000808201600061126f919061156d565b60018201600061127f919061156d565b60028201600061128f919061156d565b60038201600061129f919061156d565b6004820160006101000a81549073ffffffffffffffffffffffffffffffffffffffff02191690555050600960008154809291906001900391905055505050505050565b6112ea6115b5565b60405180606001604052808581526020018481526020018373ffffffffffffffffffffffffffffffffffffffff168152509050806003600082015181600001908051906020019061133c9291906114a8565b5060208201518160010190805190602001906113599291906114a8565b5060408201518160020160006101000a81548173ffffffffffffffffffffffffffffffffffffffff021916908373ffffffffffffffffffffffffffffffffffffffff16021790555090505050505050565b60008060009054906101000a900473ffffffffffffffffffffffffffffffffffffffff1673ffffffffffffffffffffffffffffffffffffffff166318160ddd6040518163ffffffff1660e01b815260040160206040518083038186803b15801561141357600080fd5b505afa158015611427573d6000803e3d6000fd5b505050506040513d601f19601f8201168201806040525061144b9190810190611b14565b905090565b6000600954905090565b6040518060c00160405280606081526020016060815260200160608152602001600073ffffffffffffffffffffffffffffffffffffffff168152602001600081526020016000151581525090565b828054600181600116156101000203166002900490600052602060002090601f016020900481019282601f106114e957805160ff1916838001178555611517565b82800160010185558215611517579182015b828111156115165782518255916020019190600101906114fb565b5b50905061152491906115ec565b5090565b6040518060a0016040528060608152602001606081526020016060815260200160608152602001600073ffffffffffffffffffffffffffffffffffffffff1681525090565b50805460018160011615610100020316600290046000825580601f1061159357506115b2565b601f0160209004906000526020600020908101906115b191906115ec565b5b50565b60405180606001604052806060815260200160608152602001600073ffffffffffffffffffffffffffffffffffffffff1681525090565b61160e91905b8082111561160a5760008160009055506001016115f2565b5090565b90565b6000813590506116208161229e565b92915050565b600082601f83011261163757600080fd5b813561164a6116458261213a565b61210d565b9150808252602083016020830185838301111561166657600080fd5b61167183828461224b565b50505092915050565b600082601f83011261168b57600080fd5b815161169e6116998261213a565b61210d565b915080825260208301602083018583830111156116ba57600080fd5b6116c583828461225a565b50505092915050565b6000813590506116dd816122b5565b92915050565b6000815190506116f2816122b5565b92915050565b600080600080600080600060e0888a03121561171357600080fd5b60006117218a828b01611611565b975050602088013567ffffffffffffffff81111561173e57600080fd5b61174a8a828b01611626565b965050604088013567ffffffffffffffff81111561176757600080fd5b6117738a828b01611626565b955050606088013567ffffffffffffffff81111561179057600080fd5b61179c8a828b01611626565b945050608088013567ffffffffffffffff8111156117b957600080fd5b6117c58a828b01611626565b93505060a088013567ffffffffffffffff8111156117e257600080fd5b6117ee8a828b01611626565b92505060c088013567ffffffffffffffff81111561180b57600080fd5b6118178a828b01611626565b91505092959891949750929550565b60006020828403121561183857600080fd5b600082015167ffffffffffffffff81111561185257600080fd5b61185e8482850161167a565b91505092915050565b60008060006060848603121561187c57600080fd5b600084013567ffffffffffffffff81111561189657600080fd5b6118a286828701611626565b935050602084013567ffffffffffffffff8111156118bf57600080fd5b6118cb86828701611626565b92505060406118dc86828701611611565b9150509250925092565b6000806000606084860312156118fb57600080fd5b600084013567ffffffffffffffff81111561191557600080fd5b61192186828701611626565b935050602084013567ffffffffffffffff81111561193e57600080fd5b61194a86828701611626565b925050604084013567ffffffffffffffff81111561196757600080fd5b61197386828701611626565b9150509250925092565b6000806000806080858703121561199357600080fd5b600085013567ffffffffffffffff8111156119ad57600080fd5b6119b987828801611626565b945050602085013567ffffffffffffffff8111156119d657600080fd5b6119e287828801611626565b935050604085013567ffffffffffffffff8111156119ff57600080fd5b611a0b87828801611626565b9250506060611a1c87828801611611565b91505092959194509250565b60008060008060808587031215611a3e57600080fd5b600085013567ffffffffffffffff811115611a5857600080fd5b611a6487828801611626565b945050602085013567ffffffffffffffff811115611a8157600080fd5b611a8d87828801611626565b935050604085013567ffffffffffffffff811115611aaa57600080fd5b611ab687828801611626565b925050606085013567ffffffffffffffff811115611ad357600080fd5b611adf87828801611626565b91505092959194509250565b600060208284031215611afd57600080fd5b6000611b0b848285016116ce565b91505092915050565b600060208284031215611b2657600080fd5b6000611b34848285016116e3565b91505092915050565b611b46816121bb565b82525050565b611b55816121bb565b82525050565b611b64816121cd565b82525050565b611b7381612203565b82525050565b611b8281612227565b82525050565b6000611b9382612183565b611b9d818561219f565b9350611bad81856020860161225a565b611bb68161228d565b840191505092915050565b6000611bcc82612183565b611bd681856121b0565b9350611be681856020860161225a565b80840191505092915050565b6000611bfd82612178565b611c07818561218e565b9350611c1781856020860161225a565b611c208161228d565b840191505092915050565b600081546001811660008114611c485760018114611c6d57611cb1565b607f6002830416611c5981876121b0565b955060ff1983168652808601935050611cb1565b60028204611c7b81876121b0565b9550611c8685612166565b60005b82811015611ca857815481890152600182019150602081019050611c89565b82880195505050505b505092915050565b6000611cc660198361219f565b91507f556e697665727369747920646f6573206e6f74206578697374000000000000006000830152602082019050919050565b6000611d06600a836121b0565b91507f756e6976657273697479000000000000000000000000000000000000000000006000830152600a82019050919050565b6000611d466001836121b0565b91507f20000000000000000000000000000000000000000000000000000000000000006000830152600182019050919050565b6000611d8660168361219f565b91507f53747564656e7420646f6573206e6f74206578697374000000000000000000006000830152602082019050919050565b6000611dc66002836121b0565b91507f3a200000000000000000000000000000000000000000000000000000000000006000830152600282019050919050565b600060c0830160008301518482036000860152611e168282611bf2565b91505060208301518482036020860152611e308282611bf2565b91505060408301518482036040860152611e4a8282611bf2565b9150506060830151611e5f6060860182611b3d565b506080830151611e726080860182611e90565b5060a0830151611e8560a0860182611b5b565b508091505092915050565b611e99816121f9565b82525050565b611ea8816121f9565b82525050565b6000611eba8284611bc1565b915081905092915050565b6000611ed18284611c2b565b915081905092915050565b6000611ee88286611c2b565b9150611ef382611db9565b9150611eff8285611c2b565b9150611f0a82611d39565b9150611f168284611c2b565b9150819050949350505050565b6000611f2e82611cf9565b9150819050919050565b6000602082019050611f4d6000830184611b4c565b92915050565b600060e082019050611f68600083018a611b4c565b8181036020830152611f7a8189611b88565b90508181036040830152611f8e8188611b88565b90508181036060830152611fa28187611b88565b90508181036080830152611fb68186611b88565b905081810360a0830152611fca8185611b88565b905081810360c0830152611fde8184611b88565b905098975050505050505050565b60006020820190506120016000830184611b6a565b92915050565b600060208201905061201c6000830184611b79565b92915050565b6000602082019050818103600083015261203c8184611b88565b905092915050565b6000606082019050818103600083015261205e8186611b88565b905081810360208301526120728185611b88565b905081810360408301526120868184611b88565b9050949350505050565b600060208201905081810360008301526120a981611cb9565b9050919050565b600060208201905081810360008301526120c981611d79565b9050919050565b600060208201905081810360008301526120ea8184611df9565b905092915050565b60006020820190506121076000830184611e9f565b92915050565b6000604051905081810181811067ffffffffffffffff8211171561213057600080fd5b8060405250919050565b600067ffffffffffffffff82111561215157600080fd5b601f19601f8301169050602081019050919050565b60008160005260206000209050919050565b600081519050919050565b600081519050919050565b600082825260208201905092915050565b600082825260208201905092915050565b600081905092915050565b60006121c6826121d9565b9050919050565b60008115159050919050565b600073ffffffffffffffffffffffffffffffffffffffff82169050919050565b6000819050919050565b600061220e82612215565b9050919050565b6000612220826121d9565b9050919050565b600061223282612239565b9050919050565b6000612244826121d9565b9050919050565b82818337600083830152505050565b60005b8381101561227857808201518184015260208101905061225d565b83811115612287576000848401525b50505050565b6000601f19601f8301169050919050565b6122a7816121bb565b81146122b257600080fd5b50565b6122be816121f9565b81146122c957600080fd5b5056fea265627a7a72305820bf64425d843b342bb5e5bd70db6b989e42debc4f8f7a9595ed781bf72078af916c6578706572696d656e74616cf50037",
  "source": "pragma solidity ^0.5.0;\r\npragma experimental ABIEncoderV2;\r\nimport \"./Degree.sol\";\r\n\r\n\r\n// contract Universities {\r\n//     mapping(address => University) public universities;\r\n//     uint public universityCount;\r\n//     Degree public degreeGenerator;\r\n//     Companies public companies;\r\n\r\n//     constructor(Degree _degree, Companies _companies) public\r\n//     {\r\n//         degreeGenerator = _degree;\r\n//         companies = _companies;\r\n//         universityCount = 0;\r\n//         addUniversity(\"Stellenbosch University\", \"randomnum\", 0xB71075dd72b94C65a69235A511B69Af30161272C);\r\n//     }\r\n\r\n//     function addUniversity(string memory _name, string memory _identifier, address _wallet) public\r\n//     {\r\n//         University university = new University (_name, _identifier, _wallet, degreeGenerator, companies);\r\n//         universities[_wallet] = university;\r\n//         universityCount++;\r\n//     }\r\n\r\n//     function getUniversityInstance(address _wallet) public view returns (University) {\r\n//         return universities[_wallet];\r\n//     }\r\n\r\n//     function getUniversityCount() public view returns (uint){\r\n//         return universityCount;\r\n//     }\r\n// }\r\n\r\ncontract Companies {\r\n    Company[] companies;\r\n    uint public companyCount;\r\n\r\n    struct Company{\r\n        string name;\r\n        address wallet;\r\n    }\r\n\r\n     constructor() public{\r\n        companyCount = 0;\r\n     }\r\n\r\n    function addCompany(string memory name, address _wallet) public {\r\n        companies.push(Company(name, _wallet));\r\n        companyCount ++;\r\n    }\r\n}\r\n\r\ncontract UniversityDegreeAuthenticator{\r\n\r\n    Degree public degreeGenerator;\r\n    mapping(uint => address) public degreeTokenIds;\r\n    Companies public companies;\r\n    University currentUniversity;\r\n\r\n    struct University {\r\n        string universityName;\r\n        string identifier;\r\n        address wallet;\r\n    }\r\n\r\n    mapping(address => Student) students;\r\n    uint studentCount;\r\n    mapping(uint => Request) requests;\r\n    uint requestCount;\r\n\r\n    struct Student {\r\n        string studentid;\r\n        string name;\r\n        string surname;\r\n        address walletaddress;\r\n        uint degreeTokenCount;\r\n        bool exists;\r\n    }\r\n\r\n    struct Request {\r\n        string studentid;\r\n        string degreename;\r\n        string degreetype;\r\n        string degreemajor;\r\n        address walletaddress;\r\n    }\r\n\r\n    constructor(Degree _degree, Companies _companies) public\r\n    {\r\n        addUniversity(\"Stellenbosch University\", \"randomnum\", 0xB71075dd72b94C65a69235A511B69Af30161272C);\r\n        degreeGenerator = _degree;\r\n        companies = _companies;\r\n        addStudent(\"19026672\", \"Amanda\", \"Pierce\", 0x7A6aE73a9A9a84fb315ffdC46f28f48446833658);\r\n    }\r\n\r\n    function addUniversity(string memory _name, string memory _identifier, address _wallet) public\r\n    {\r\n        University memory university = University(_name, _identifier, _wallet);\r\n        currentUniversity = university;\r\n    }\r\n\r\n    function isRegisteredUser() public view returns (string memory)\r\n    {\r\n        if(!students[msg.sender].exists)\r\n        {\r\n            require((currentUniversity.wallet == msg.sender), \"University does not exist\");\r\n            return \"university\";\r\n        }\r\n        else\r\n        {\r\n            return \"student\";\r\n        }\r\n    }\r\n\r\n    function getName() public view returns (string memory)\r\n    {\r\n        string memory currentType = isRegisteredUser();\r\n\r\n        if(keccak256(abi.encodePacked(currentType)) == keccak256(abi.encodePacked(\"university\")))\r\n        {\r\n            return currentUniversity.universityName;\r\n        }\r\n        else\r\n        {\r\n            return string(abi.encodePacked(students[msg.sender].studentid, \": \", students[msg.sender].name, \" \", students[msg.sender].surname));\r\n        }\r\n    }\r\n\r\n    function getTotalRequests() public view returns (uint)\r\n    {\r\n        return requestCount;\r\n    }\r\n\r\n    function addStudent(string memory _studentid, string memory _studentname, string memory _surname, address _wallet) public {\r\n        //bytes32 _id = keccak256(abi.encodePacked(_studentid));\r\n        students[_wallet] = Student(_studentid, _studentname, _surname, _wallet, 0, true);\r\n        studentCount++;\r\n    }\r\n\r\n    function getStudentInformation() public view returns (Student memory) {\r\n        require((students[msg.sender].exists), \"Student does not exist\");\r\n        Student memory student = students[msg.sender];\r\n        //bytes32 _id = keccak256(abi.encodePacked(_studentid));\r\n        return student;\r\n    }\r\n\r\n    function requestDocument(string memory studentid, string memory degreename, string memory degreetype, string memory degreemajor) public {\r\n        requestCount++;\r\n        requests[requestCount] = Request(studentid, degreename, degreetype, degreemajor, msg.sender);\r\n    }\r\n\r\n    function handleRequest(string memory studentid, string memory ipfshash, string memory uniqueKey) public {\r\n        Request memory request;\r\n        uint idx;\r\n        for(uint i = 1; i <= requestCount; i++)\r\n        {\r\n            if (keccak256(abi.encodePacked((requests[i].studentid))) == keccak256(abi.encodePacked((studentid))))\r\n            {\r\n                request = requests[i];\r\n                idx = i;\r\n                break;\r\n            }\r\n        }\r\n        addDegree(request.walletaddress, request.studentid, request.degreename, request.degreetype, request.degreemajor, ipfshash, uniqueKey);\r\n        delete requests[idx];\r\n        requestCount--;\r\n    }\r\n\r\n    function addDegree\r\n    (\r\n        address studentaddress,\r\n        string memory studentid,\r\n        string memory degreename,\r\n        string memory degreetype,\r\n        string memory degreemajor,\r\n        string memory ipfshash,\r\n        string memory uniqueKey\r\n    ) public\r\n    {\r\n        Student storage student = students[studentaddress];\r\n        uint _id = degreeGenerator.mint(studentaddress, studentid, degreename, degreetype, degreemajor, ipfshash, uniqueKey);\r\n        student.degreeTokenCount ++;\r\n        degreeTokenIds[_id] = studentaddress;\r\n    }\r\n\r\n    function getTotalDegrees() public view returns(uint) {\r\n        return degreeGenerator.totalSupply();\r\n    }\r\n \r\n    function getDegreeHash\r\n    (\r\n        string memory degreename,\r\n        string memory degreetype,\r\n        string memory degreemajor\r\n    ) public view returns (string memory) {\r\n        return degreeGenerator.getIpfsHash(degreename, degreetype, degreemajor);\r\n    }\r\n}\r\n",
  "sourcePath": "C:/Users/Amanda/Desktop/BlockchainAssignment3/contracts/Universities.sol",
  "compiler": {
    "name": "solc",
    "version": "0.5.8+commit.23d335f2.Emscripten.clang"
  },
  "schemaVersion": "3.0.16",
  "updatedAt": "2019-10-26T17:29:01.159Z",
  "devdoc": {
    "methods": {}
  },
  "userdoc": {
    "methods": {}
  }
}